{
  "_format": "hh-sol-artifact-1",
  "contractName": "Ballot",
  "sourceName": "contracts/Election.sol",
  "abi": [
    {
      "inputs": [
        {
          "internalType": "address",
          "name": "registryAddress",
          "type": "address"
        },
        {
          "internalType": "string[]",
          "name": "presidentNames",
          "type": "string[]"
        },
        {
          "internalType": "string[]",
          "name": "vicePresidentNames",
          "type": "string[]"
        },
        {
          "internalType": "string[]",
          "name": "senatorNames",
          "type": "string[]"
        }
      ],
      "stateMutability": "nonpayable",
      "type": "constructor"
    },
    {
      "inputs": [],
      "name": "getStatistic",
      "outputs": [
        {
          "components": [
            {
              "internalType": "string",
              "name": "name",
              "type": "string"
            },
            {
              "internalType": "uint256",
              "name": "voteCount",
              "type": "uint256"
            }
          ],
          "internalType": "struct Ballot.Candidate[]",
          "name": "",
          "type": "tuple[]"
        },
        {
          "components": [
            {
              "internalType": "string",
              "name": "name",
              "type": "string"
            },
            {
              "internalType": "uint256",
              "name": "voteCount",
              "type": "uint256"
            }
          ],
          "internalType": "struct Ballot.Candidate[]",
          "name": "",
          "type": "tuple[]"
        },
        {
          "components": [
            {
              "internalType": "string",
              "name": "name",
              "type": "string"
            },
            {
              "internalType": "uint256",
              "name": "voteCount",
              "type": "uint256"
            }
          ],
          "internalType": "struct Ballot.Candidate[]",
          "name": "",
          "type": "tuple[]"
        }
      ],
      "stateMutability": "view",
      "type": "function"
    },
    {
      "inputs": [
        {
          "internalType": "uint256",
          "name": "",
          "type": "uint256"
        }
      ],
      "name": "presidents",
      "outputs": [
        {
          "internalType": "string",
          "name": "name",
          "type": "string"
        },
        {
          "internalType": "uint256",
          "name": "voteCount",
          "type": "uint256"
        }
      ],
      "stateMutability": "view",
      "type": "function"
    },
    {
      "inputs": [
        {
          "internalType": "uint256",
          "name": "",
          "type": "uint256"
        }
      ],
      "name": "senators",
      "outputs": [
        {
          "internalType": "string",
          "name": "name",
          "type": "string"
        },
        {
          "internalType": "uint256",
          "name": "voteCount",
          "type": "uint256"
        }
      ],
      "stateMutability": "view",
      "type": "function"
    },
    {
      "inputs": [
        {
          "internalType": "bool",
          "name": "status",
          "type": "bool"
        }
      ],
      "name": "setElectionStatus",
      "outputs": [],
      "stateMutability": "nonpayable",
      "type": "function"
    },
    {
      "inputs": [
        {
          "internalType": "uint256",
          "name": "",
          "type": "uint256"
        }
      ],
      "name": "vicePresidents",
      "outputs": [
        {
          "internalType": "string",
          "name": "name",
          "type": "string"
        },
        {
          "internalType": "uint256",
          "name": "voteCount",
          "type": "uint256"
        }
      ],
      "stateMutability": "view",
      "type": "function"
    },
    {
      "inputs": [
        {
          "internalType": "int256",
          "name": "presidentVote",
          "type": "int256"
        },
        {
          "internalType": "int256",
          "name": "vicePresidentVote",
          "type": "int256"
        },
        {
          "internalType": "int256[]",
          "name": "senatorVotes",
          "type": "int256[]"
        }
      ],
      "name": "vote",
      "outputs": [],
      "stateMutability": "nonpayable",
      "type": "function"
    },
    {
      "inputs": [
        {
          "internalType": "address",
          "name": "",
          "type": "address"
        }
      ],
      "name": "voters",
      "outputs": [
        {
          "internalType": "address",
          "name": "voter",
          "type": "address"
        },
        {
          "internalType": "bool",
          "name": "voted",
          "type": "bool"
        }
      ],
      "stateMutability": "view",
      "type": "function"
    }
  ],
  "bytecode": "0x608060405234801561001057600080fd5b50604051611fe3380380611fe38339818101604052810190610032919061053b565b33600560006101000a81548173ffffffffffffffffffffffffffffffffffffffff021916908373ffffffffffffffffffffffffffffffffffffffff16021790555083600460006101000a81548173ffffffffffffffffffffffffffffffffffffffff021916908373ffffffffffffffffffffffffffffffffffffffff16021790555060005b835181101561014a57600160405180604001604052808684815181106100e0576100df6105f6565b5b602002602001015181526020016000815250908060018154018082558091505060019003906000526020600020906002020160009091909190915060008201518160000190816101309190610846565b5060208201518160010155505080806001019150506100b7565b5060005b82518110156101e15760026040518060400160405280858481518110610177576101766105f6565b5b602002602001015181526020016000815250908060018154018082558091505060019003906000526020600020906002020160009091909190915060008201518160000190816101c79190610846565b50602082015181600101555050808060010191505061014e565b5060005b8151811015610278576003604051806040016040528084848151811061020e5761020d6105f6565b5b6020026020010151815260200160008152509080600181540180825580915050600190039060005260206000209060020201600090919091909150600082015181600001908161025e9190610846565b5060208201518160010155505080806001019150506101e5565b5050505050610918565b6000604051905090565b600080fd5b600080fd5b600073ffffffffffffffffffffffffffffffffffffffff82169050919050565b60006102c182610296565b9050919050565b6102d1816102b6565b81146102dc57600080fd5b50565b6000815190506102ee816102c8565b92915050565b600080fd5b6000601f19601f8301169050919050565b7f4e487b7100000000000000000000000000000000000000000000000000000000600052604160045260246000fd5b610342826102f9565b810181811067ffffffffffffffff821117156103615761036061030a565b5b80604052505050565b6000610374610282565b90506103808282610339565b919050565b600067ffffffffffffffff8211156103a05761039f61030a565b5b602082029050602081019050919050565b600080fd5b600080fd5b600067ffffffffffffffff8211156103d6576103d561030a565b5b6103df826102f9565b9050602081019050919050565b60005b8381101561040a5780820151818401526020810190506103ef565b60008484015250505050565b6000610429610424846103bb565b61036a565b905082815260208101848484011115610445576104446103b6565b5b6104508482856103ec565b509392505050565b600082601f83011261046d5761046c6102f4565b5b815161047d848260208601610416565b91505092915050565b600061049961049484610385565b61036a565b905080838252602082019050602084028301858111156104bc576104bb6103b1565b5b835b8181101561050357805167ffffffffffffffff8111156104e1576104e06102f4565b5b8086016104ee8982610458565b855260208501945050506020810190506104be565b5050509392505050565b600082601f830112610522576105216102f4565b5b8151610532848260208601610486565b91505092915050565b600080600080608085870312156105555761055461028c565b5b6000610563878288016102df565b945050602085015167ffffffffffffffff81111561058457610583610291565b5b6105908782880161050d565b935050604085015167ffffffffffffffff8111156105b1576105b0610291565b5b6105bd8782880161050d565b925050606085015167ffffffffffffffff8111156105de576105dd610291565b5b6105ea8782880161050d565b91505092959194509250565b7f4e487b7100000000000000000000000000000000000000000000000000000000600052603260045260246000fd5b600081519050919050565b7f4e487b7100000000000000000000000000000000000000000000000000000000600052602260045260246000fd5b6000600282049050600182168061067757607f821691505b60208210810361068a57610689610630565b5b50919050565b60008190508160005260206000209050919050565b60006020601f8301049050919050565b600082821b905092915050565b6000600883026106f27fffffffffffffffffffffffffffffffffffffffffffffffffffffffffffffffff826106b5565b6106fc86836106b5565b95508019841693508086168417925050509392505050565b6000819050919050565b6000819050919050565b600061074361073e61073984610714565b61071e565b610714565b9050919050565b6000819050919050565b61075d83610728565b6107716107698261074a565b8484546106c2565b825550505050565b600090565b610786610779565b610791818484610754565b505050565b5b818110156107b5576107aa60008261077e565b600181019050610797565b5050565b601f8211156107fa576107cb81610690565b6107d4846106a5565b810160208510156107e3578190505b6107f76107ef856106a5565b830182610796565b50505b505050565b600082821c905092915050565b600061081d600019846008026107ff565b1980831691505092915050565b6000610836838361080c565b9150826002028217905092915050565b61084f82610625565b67ffffffffffffffff8111156108685761086761030a565b5b610872825461065f565b61087d8282856107b9565b600060209050601f8311600181146108b0576000841561089e578287015190505b6108a8858261082a565b865550610910565b601f1984166108be86610690565b60005b828110156108e6578489015182556001820191506020850194506020810190506108c1565b8683101561090357848901516108ff601f89168261080c565b8355505b6001600288020188555050505b505050505050565b6116bc806109276000396000f3fe608060405234801561001057600080fd5b506004361061007d5760003560e01c8063a3ec138d1161005b578063a3ec138d14610104578063ba905a4f14610135578063cae2a4a914610166578063dfc3e3e0146101825761007d565b806365b174e914610082578063856ebb06146100a2578063a22c7aff146100d3575b600080fd5b61008a61019e565b60405161009993929190610da3565b60405180910390f35b6100bc60048036038101906100b79190610e2f565b610493565b6040516100ca929190610eb5565b60405180910390f35b6100ed60048036038101906100e89190610e2f565b61054f565b6040516100fb929190610eb5565b60405180910390f35b61011e60048036038101906101199190610f43565b61060b565b60405161012c929190610f9a565b60405180910390f35b61014f600480360381019061014a9190610e2f565b61065c565b60405161015d929190610eb5565b60405180910390f35b610180600480360381019061017b9190610fef565b610718565b005b61019c6004803603810190610197919061119a565b6107c5565b005b606080606060016002600382805480602002602001604051908101604052809291908181526020016000905b8282101561029857838290600052602060002090600202016040518060400160405290816000820180546101fd90611238565b80601f016020809104026020016040519081016040528092919081815260200182805461022990611238565b80156102765780601f1061024b57610100808354040283529160200191610276565b820191906000526020600020905b81548152906001019060200180831161025957829003601f168201915b50505050508152602001600182015481525050815260200190600101906101ca565b50505050925081805480602002602001604051908101604052809291908181526020016000905b8282101561038d57838290600052602060002090600202016040518060400160405290816000820180546102f290611238565b80601f016020809104026020016040519081016040528092919081815260200182805461031e90611238565b801561036b5780601f106103405761010080835404028352916020019161036b565b820191906000526020600020905b81548152906001019060200180831161034e57829003601f168201915b50505050508152602001600182015481525050815260200190600101906102bf565b50505050915080805480602002602001604051908101604052809291908181526020016000905b8282101561048257838290600052602060002090600202016040518060400160405290816000820180546103e790611238565b80601f016020809104026020016040519081016040528092919081815260200182805461041390611238565b80156104605780601f1061043557610100808354040283529160200191610460565b820191906000526020600020905b81548152906001019060200180831161044357829003601f168201915b50505050508152602001600182015481525050815260200190600101906103b4565b505050509050925092509250909192565b600381815481106104a357600080fd5b90600052602060002090600202016000915090508060000180546104c690611238565b80601f01602080910402602001604051908101604052809291908181526020018280546104f290611238565b801561053f5780601f106105145761010080835404028352916020019161053f565b820191906000526020600020905b81548152906001019060200180831161052257829003601f168201915b5050505050908060010154905082565b6001818154811061055f57600080fd5b906000526020600020906002020160009150905080600001805461058290611238565b80601f01602080910402602001604051908101604052809291908181526020018280546105ae90611238565b80156105fb5780601f106105d0576101008083540402835291602001916105fb565b820191906000526020600020905b8154815290600101906020018083116105de57829003601f168201915b5050505050908060010154905082565b60006020528060005260406000206000915090508060000160009054906101000a900473ffffffffffffffffffffffffffffffffffffffff16908060000160149054906101000a900460ff16905082565b6002818154811061066c57600080fd5b906000526020600020906002020160009150905080600001805461068f90611238565b80601f01602080910402602001604051908101604052809291908181526020018280546106bb90611238565b80156107085780601f106106dd57610100808354040283529160200191610708565b820191906000526020600020905b8154815290600101906020018083116106eb57829003601f168201915b5050505050908060010154905082565b3373ffffffffffffffffffffffffffffffffffffffff16600560009054906101000a900473ffffffffffffffffffffffffffffffffffffffff1673ffffffffffffffffffffffffffffffffffffffff16146107a8576040517f08c379a000000000000000000000000000000000000000000000000000000000815260040161079f906112db565b60405180910390fd5b80600460146101000a81548160ff02191690831515021790555050565b600460149054906101000a900460ff16610814576040517f08c379a000000000000000000000000000000000000000000000000000000000815260040161080b90611347565b60405180910390fd5b600460009054906101000a900473ffffffffffffffffffffffffffffffffffffffff1673ffffffffffffffffffffffffffffffffffffffff16633ce3b25d336040518263ffffffff1660e01b815260040161086f9190611367565b602060405180830381865afa15801561088c573d6000803e3d6000fd5b505050506040513d601f19601f820116820180604052508101906108b09190611397565b6108ef576040517f08c379a00000000000000000000000000000000000000000000000000000000081526004016108e690611410565b60405180910390fd5b600015156000803373ffffffffffffffffffffffffffffffffffffffff1673ffffffffffffffffffffffffffffffffffffffff16815260200190815260200160002060000160149054906101000a900460ff16151514610984576040517f08c379a000000000000000000000000000000000000000000000000000000000815260040161097b9061147c565b60405180910390fd5b60018054905083126109cb576040517f08c379a00000000000000000000000000000000000000000000000000000000081526004016109c2906114e8565b60405180910390fd5b6002805490508212610a12576040517f08c379a0000000000000000000000000000000000000000000000000000000008152600401610a0990611554565b60405180910390fd5b600c815114610a56576040517f08c379a0000000000000000000000000000000000000000000000000000000008152600401610a4d906115c0565b60405180910390fd5b60016000803373ffffffffffffffffffffffffffffffffffffffff1673ffffffffffffffffffffffffffffffffffffffff16815260200190815260200160002060000160146101000a81548160ff02191690831515021790555060008312610af45760018381548110610acc57610acb6115e0565b5b90600052602060002090600202016001016000815480929190610aee9061163e565b91905055505b60008212610b385760028281548110610b1057610b0f6115e0565b5b90600052602060002090600202016001016000815480929190610b329061163e565b91905055505b60005b8151811015610bf5576000828281518110610b5957610b586115e0565b5b602002602001015112158015610b8d5750600380549050828281518110610b8357610b826115e0565b5b6020026020010151125b15610be8576003828281518110610ba757610ba66115e0565b5b602002602001015181548110610bc057610bbf6115e0565b5b90600052602060002090600202016001016000815480929190610be29061163e565b91905055505b8080600101915050610b3b565b50505050565b600081519050919050565b600082825260208201905092915050565b6000819050602082019050919050565b600081519050919050565b600082825260208201905092915050565b60005b83811015610c61578082015181840152602081019050610c46565b60008484015250505050565b6000601f19601f8301169050919050565b6000610c8982610c27565b610c938185610c32565b9350610ca3818560208601610c43565b610cac81610c6d565b840191505092915050565b6000819050919050565b610cca81610cb7565b82525050565b60006040830160008301518482036000860152610ced8282610c7e565b9150506020830151610d026020860182610cc1565b508091505092915050565b6000610d198383610cd0565b905092915050565b6000602082019050919050565b6000610d3982610bfb565b610d438185610c06565b935083602082028501610d5585610c17565b8060005b85811015610d915784840389528151610d728582610d0d565b9450610d7d83610d21565b925060208a01995050600181019050610d59565b50829750879550505050505092915050565b60006060820190508181036000830152610dbd8186610d2e565b90508181036020830152610dd18185610d2e565b90508181036040830152610de58184610d2e565b9050949350505050565b6000604051905090565b600080fd5b600080fd5b610e0c81610cb7565b8114610e1757600080fd5b50565b600081359050610e2981610e03565b92915050565b600060208284031215610e4557610e44610df9565b5b6000610e5384828501610e1a565b91505092915050565b600082825260208201905092915050565b6000610e7882610c27565b610e828185610e5c565b9350610e92818560208601610c43565b610e9b81610c6d565b840191505092915050565b610eaf81610cb7565b82525050565b60006040820190508181036000830152610ecf8185610e6d565b9050610ede6020830184610ea6565b9392505050565b600073ffffffffffffffffffffffffffffffffffffffff82169050919050565b6000610f1082610ee5565b9050919050565b610f2081610f05565b8114610f2b57600080fd5b50565b600081359050610f3d81610f17565b92915050565b600060208284031215610f5957610f58610df9565b5b6000610f6784828501610f2e565b91505092915050565b610f7981610f05565b82525050565b60008115159050919050565b610f9481610f7f565b82525050565b6000604082019050610faf6000830185610f70565b610fbc6020830184610f8b565b9392505050565b610fcc81610f7f565b8114610fd757600080fd5b50565b600081359050610fe981610fc3565b92915050565b60006020828403121561100557611004610df9565b5b600061101384828501610fda565b91505092915050565b6000819050919050565b61102f8161101c565b811461103a57600080fd5b50565b60008135905061104c81611026565b92915050565b600080fd5b7f4e487b7100000000000000000000000000000000000000000000000000000000600052604160045260246000fd5b61108f82610c6d565b810181811067ffffffffffffffff821117156110ae576110ad611057565b5b80604052505050565b60006110c1610def565b90506110cd8282611086565b919050565b600067ffffffffffffffff8211156110ed576110ec611057565b5b602082029050602081019050919050565b600080fd5b6000611116611111846110d2565b6110b7565b90508083825260208201905060208402830185811115611139576111386110fe565b5b835b81811015611162578061114e888261103d565b84526020840193505060208101905061113b565b5050509392505050565b600082601f83011261118157611180611052565b5b8135611191848260208601611103565b91505092915050565b6000806000606084860312156111b3576111b2610df9565b5b60006111c18682870161103d565b93505060206111d28682870161103d565b925050604084013567ffffffffffffffff8111156111f3576111f2610dfe565b5b6111ff8682870161116c565b9150509250925092565b7f4e487b7100000000000000000000000000000000000000000000000000000000600052602260045260246000fd5b6000600282049050600182168061125057607f821691505b60208210810361126357611262611209565b5b50919050565b7f596f7520617265206e6f7420617574686f72697a656420746f2061636365737360008201527f20746869732066756e6374696f6e2e0000000000000000000000000000000000602082015250565b60006112c5602f83610e5c565b91506112d082611269565b604082019050919050565b600060208201905081810360008301526112f4816112b8565b9050919050565b7f5468697320656c656374696f6e206973206e6f74206f6e20676f696e672e0000600082015250565b6000611331601e83610e5c565b915061133c826112fb565b602082019050919050565b6000602082019050818103600083015261136081611324565b9050919050565b600060208201905061137c6000830184610f70565b92915050565b60008151905061139181610fc3565b92915050565b6000602082840312156113ad576113ac610df9565b5b60006113bb84828501611382565b91505092915050565b7f596f7520617265206e6f74206120766572696669656420766f7465722e000000600082015250565b60006113fa601d83610e5c565b9150611405826113c4565b602082019050919050565b60006020820190508181036000830152611429816113ed565b9050919050565b7f596f75206861766520616c726561647920766f7465642e000000000000000000600082015250565b6000611466601783610e5c565b915061147182611430565b602082019050919050565b6000602082019050818103600083015261149581611459565b9050919050565b7f496e76616c696420766f746520666f7220507265736964656e742e0000000000600082015250565b60006114d2601b83610e5c565b91506114dd8261149c565b602082019050919050565b60006020820190508181036000830152611501816114c5565b9050919050565b7f496e76616c696420766f746520666f72205669636520507265736964656e742e600082015250565b600061153e602083610e5c565b915061154982611508565b602082019050919050565b6000602082019050818103600083015261156d81611531565b9050919050565b7f596f75206861766520746f20766f74652031322053656e61746f72732e000000600082015250565b60006115aa601d83610e5c565b91506115b582611574565b602082019050919050565b600060208201905081810360008301526115d98161159d565b9050919050565b7f4e487b7100000000000000000000000000000000000000000000000000000000600052603260045260246000fd5b7f4e487b7100000000000000000000000000000000000000000000000000000000600052601160045260246000fd5b600061164982610cb7565b91507fffffffffffffffffffffffffffffffffffffffffffffffffffffffffffffffff820361167b5761167a61160f565b5b60018201905091905056fea2646970667358221220f9fceb7294ef7646603b03f6b684daae0f0e9f4a24ef94046e04d2f3dba458f364736f6c634300081c0033",
  "linkReferences": {},
  "deployedLinkReferences": {}
}