{
  "_format": "hh-sol-artifact-1",
  "contractName": "Registry",
  "sourceName": "contracts/Election.sol",
  "abi": [
    {
      "inputs": [
        {
          "internalType": "address",
          "name": "voter",
          "type": "address"
        }
      ],
      "name": "isVoterVerified",
      "outputs": [
        {
          "internalType": "bool",
          "name": "",
          "type": "bool"
        }
      ],
      "stateMutability": "view",
      "type": "function"
    },
    {
      "inputs": [
        {
          "internalType": "string",
          "name": "fullName",
          "type": "string"
        }
      ],
      "name": "registerVoter",
      "outputs": [],
      "stateMutability": "nonpayable",
      "type": "function"
    },
    {
      "inputs": [
        {
          "internalType": "address",
          "name": "",
          "type": "address"
        }
      ],
      "name": "voters",
      "outputs": [
        {
          "internalType": "address",
          "name": "voter",
          "type": "address"
        },
        {
          "internalType": "string",
          "name": "fullName",
          "type": "string"
        },
        {
          "internalType": "bool",
          "name": "verified",
          "type": "bool"
        }
      ],
      "stateMutability": "view",
      "type": "function"
    }
  ],
  "bytecode": "0x6080604052348015600f57600080fd5b50610a1c8061001f6000396000f3fe608060405234801561001057600080fd5b50600436106100415760003560e01c80633ce3b25d146100465780636428a48614610076578063a3ec138d14610092575b600080fd5b610060600480360381019061005b91906103ae565b6100c4565b60405161006d91906103f6565b60405180910390f35b610090600480360381019061008b9190610557565b61011c565b005b6100ac60048036038101906100a791906103ae565b61025d565b6040516100bb9392919061062e565b60405180910390f35b60008060008373ffffffffffffffffffffffffffffffffffffffff1673ffffffffffffffffffffffffffffffffffffffff16815260200190815260200160002060020160009054906101000a900460ff169050919050565b600015156000803373ffffffffffffffffffffffffffffffffffffffff1673ffffffffffffffffffffffffffffffffffffffff16815260200190815260200160002060020160009054906101000a900460ff161515146101b1576040517f08c379a00000000000000000000000000000000000000000000000000000000081526004016101a8906106de565b60405180910390fd5b806000803373ffffffffffffffffffffffffffffffffffffffff1673ffffffffffffffffffffffffffffffffffffffff16815260200190815260200160002060010190816101ff9190610914565b5060016000803373ffffffffffffffffffffffffffffffffffffffff1673ffffffffffffffffffffffffffffffffffffffff16815260200190815260200160002060020160006101000a81548160ff02191690831515021790555050565b60006020528060005260406000206000915090508060000160009054906101000a900473ffffffffffffffffffffffffffffffffffffffff16908060010180546102a69061072d565b80601f01602080910402602001604051908101604052809291908181526020018280546102d29061072d565b801561031f5780601f106102f45761010080835404028352916020019161031f565b820191906000526020600020905b81548152906001019060200180831161030257829003601f168201915b5050505050908060020160009054906101000a900460ff16905083565b6000604051905090565b600080fd5b600080fd5b600073ffffffffffffffffffffffffffffffffffffffff82169050919050565b600061037b82610350565b9050919050565b61038b81610370565b811461039657600080fd5b50565b6000813590506103a881610382565b92915050565b6000602082840312156103c4576103c3610346565b5b60006103d284828501610399565b91505092915050565b60008115159050919050565b6103f0816103db565b82525050565b600060208201905061040b60008301846103e7565b92915050565b600080fd5b600080fd5b6000601f19601f8301169050919050565b7f4e487b7100000000000000000000000000000000000000000000000000000000600052604160045260246000fd5b6104648261041b565b810181811067ffffffffffffffff821117156104835761048261042c565b5b80604052505050565b600061049661033c565b90506104a2828261045b565b919050565b600067ffffffffffffffff8211156104c2576104c161042c565b5b6104cb8261041b565b9050602081019050919050565b82818337600083830152505050565b60006104fa6104f5846104a7565b61048c565b90508281526020810184848401111561051657610515610416565b5b6105218482856104d8565b509392505050565b600082601f83011261053e5761053d610411565b5b813561054e8482602086016104e7565b91505092915050565b60006020828403121561056d5761056c610346565b5b600082013567ffffffffffffffff81111561058b5761058a61034b565b5b61059784828501610529565b91505092915050565b6105a981610370565b82525050565b600081519050919050565b600082825260208201905092915050565b60005b838110156105e95780820151818401526020810190506105ce565b60008484015250505050565b6000610600826105af565b61060a81856105ba565b935061061a8185602086016105cb565b6106238161041b565b840191505092915050565b600060608201905061064360008301866105a0565b818103602083015261065581856105f5565b905061066460408301846103e7565b949350505050565b7f596f752061726520616c72656164792061207265676973746572656420766f7460008201527f65722e0000000000000000000000000000000000000000000000000000000000602082015250565b60006106c86023836105ba565b91506106d38261066c565b604082019050919050565b600060208201905081810360008301526106f7816106bb565b9050919050565b7f4e487b7100000000000000000000000000000000000000000000000000000000600052602260045260246000fd5b6000600282049050600182168061074557607f821691505b602082108103610758576107576106fe565b5b50919050565b60008190508160005260206000209050919050565b60006020601f8301049050919050565b600082821b905092915050565b6000600883026107c07fffffffffffffffffffffffffffffffffffffffffffffffffffffffffffffffff82610783565b6107ca8683610783565b95508019841693508086168417925050509392505050565b6000819050919050565b6000819050919050565b600061081161080c610807846107e2565b6107ec565b6107e2565b9050919050565b6000819050919050565b61082b836107f6565b61083f61083782610818565b848454610790565b825550505050565b600090565b610854610847565b61085f818484610822565b505050565b5b818110156108835761087860008261084c565b600181019050610865565b5050565b601f8211156108c8576108998161075e565b6108a284610773565b810160208510156108b1578190505b6108c56108bd85610773565b830182610864565b50505b505050565b600082821c905092915050565b60006108eb600019846008026108cd565b1980831691505092915050565b600061090483836108da565b9150826002028217905092915050565b61091d826105af565b67ffffffffffffffff8111156109365761093561042c565b5b610940825461072d565b61094b828285610887565b600060209050601f83116001811461097e576000841561096c578287015190505b61097685826108f8565b8655506109de565b601f19841661098c8661075e565b60005b828110156109b45784890151825560018201915060208501945060208101905061098f565b868310156109d157848901516109cd601f8916826108da565b8355505b6001600288020188555050505b50505050505056fea2646970667358221220d1f0d0049cad29c9e2ae6b9d885e849918e74f9d376da901da6c6f6348cda34164736f6c634300081c0033",
  "linkReferences": {},
  "deployedLinkReferences": {}
}